{
  "contractName": "SuperCrowdsale",
  "abi": [
    {
      "constant": true,
      "inputs": [],
      "name": "cap",
      "outputs": [
        {
          "name": "",
          "type": "uint256"
        }
      ],
      "payable": false,
      "stateMutability": "view",
      "type": "function"
    },
    {
      "constant": true,
      "inputs": [],
      "name": "weiRaised",
      "outputs": [
        {
          "name": "",
          "type": "uint256"
        }
      ],
      "payable": false,
      "stateMutability": "view",
      "type": "function"
    },
    {
      "constant": true,
      "inputs": [],
      "name": "capReached",
      "outputs": [
        {
          "name": "",
          "type": "bool"
        }
      ],
      "payable": false,
      "stateMutability": "view",
      "type": "function"
    },
    {
      "constant": true,
      "inputs": [],
      "name": "wallet",
      "outputs": [
        {
          "name": "",
          "type": "address"
        }
      ],
      "payable": false,
      "stateMutability": "view",
      "type": "function"
    },
    {
      "constant": true,
      "inputs": [],
      "name": "owner",
      "outputs": [
        {
          "name": "",
          "type": "address"
        }
      ],
      "payable": false,
      "stateMutability": "view",
      "type": "function"
    },
    {
      "constant": true,
      "inputs": [],
      "name": "token",
      "outputs": [
        {
          "name": "",
          "type": "address"
        }
      ],
      "payable": false,
      "stateMutability": "view",
      "type": "function"
    },
    {
      "inputs": [
        {
          "name": "_token",
          "type": "address"
        },
        {
          "name": "_wallet",
          "type": "address"
        },
        {
          "name": "_cap",
          "type": "uint256"
        }
      ],
      "payable": false,
      "stateMutability": "nonpayable",
      "type": "constructor"
    },
    {
      "payable": true,
      "stateMutability": "payable",
      "type": "fallback"
    },
    {
      "anonymous": false,
      "inputs": [
        {
          "indexed": false,
          "name": "remainder",
          "type": "uint256"
        }
      ],
      "name": "ProcessedRemainder",
      "type": "event"
    },
    {
      "anonymous": false,
      "inputs": [
        {
          "indexed": true,
          "name": "purchaser",
          "type": "address"
        },
        {
          "indexed": true,
          "name": "beneficiary",
          "type": "address"
        },
        {
          "indexed": false,
          "name": "value",
          "type": "uint256"
        },
        {
          "indexed": false,
          "name": "amount",
          "type": "uint256"
        }
      ],
      "name": "TokenPurchase",
      "type": "event"
    },
    {
      "constant": false,
      "inputs": [
        {
          "name": "_cap",
          "type": "uint256"
        }
      ],
      "name": "setCap",
      "outputs": [],
      "payable": false,
      "stateMutability": "nonpayable",
      "type": "function"
    },
    {
      "constant": false,
      "inputs": [
        {
          "name": "_beneficiary",
          "type": "address"
        }
      ],
      "name": "buyTokens",
      "outputs": [],
      "payable": true,
      "stateMutability": "payable",
      "type": "function"
    },
    {
      "constant": true,
      "inputs": [
        {
          "name": "_weiAmount",
          "type": "uint256"
        }
      ],
      "name": "getTokenAmount",
      "outputs": [
        {
          "name": "",
          "type": "uint256"
        }
      ],
      "payable": false,
      "stateMutability": "view",
      "type": "function"
    }
  ],
  "bytecode": "0x608060405234801561001057600080fd5b50604051606080610b48833981018060405281019080805190602001909291908051906020019092919080519060200190929190505050808284600073ffffffffffffffffffffffffffffffffffffffff168273ffffffffffffffffffffffffffffffffffffffff161415151561008657600080fd5b600073ffffffffffffffffffffffffffffffffffffffff168173ffffffffffffffffffffffffffffffffffffffff16141515156100c257600080fd5b81600160006101000a81548173ffffffffffffffffffffffffffffffffffffffff021916908373ffffffffffffffffffffffffffffffffffffffff160217905550806000806101000a81548173ffffffffffffffffffffffffffffffffffffffff021916908373ffffffffffffffffffffffffffffffffffffffff160217905550505060008111151561015457600080fd5b806004819055505033600560006101000a81548173ffffffffffffffffffffffffffffffffffffffff021916908373ffffffffffffffffffffffffffffffffffffffff16021790555082600660006101000a81548173ffffffffffffffffffffffffffffffffffffffff021916908373ffffffffffffffffffffffffffffffffffffffff160217905550505050610958806101f06000396000f300608060405260043610610099576000357c0100000000000000000000000000000000000000000000000000000000900463ffffffff168063355274ea146100a45780634042b66f146100cf57806347786d37146100fa5780634f93594514610127578063521eb273146101565780638da5cb5b146101ad578063c2507ac114610204578063ec8ac4d814610245578063fc0c546a1461027b575b6100a2336102d2565b005b3480156100b057600080fd5b506100b96103b6565b6040518082815260200191505060405180910390f35b3480156100db57600080fd5b506100e46103bc565b6040518082815260200191505060405180910390f35b34801561010657600080fd5b50610125600480360381019080803590602001909291905050506103c2565b005b34801561013357600080fd5b5061013c610428565b604051808215151515815260200191505060405180910390f35b34801561016257600080fd5b5061016b610437565b604051808273ffffffffffffffffffffffffffffffffffffffff1673ffffffffffffffffffffffffffffffffffffffff16815260200191505060405180910390f35b3480156101b957600080fd5b506101c261045d565b604051808273ffffffffffffffffffffffffffffffffffffffff1673ffffffffffffffffffffffffffffffffffffffff16815260200191505060405180910390f35b34801561021057600080fd5b5061022f60048036038101908080359060200190929190505050610483565b6040518082815260200191505060405180910390f35b610279600480360381019080803573ffffffffffffffffffffffffffffffffffffffff1690602001909291905050506102d2565b005b34801561028757600080fd5b50610290610600565b604051808273ffffffffffffffffffffffffffffffffffffffff1673ffffffffffffffffffffffffffffffffffffffff16815260200191505060405180910390f35b6000346007819055506102e782600754610626565b6102f2600754610483565b90506102fe8282610659565b8173ffffffffffffffffffffffffffffffffffffffff163373ffffffffffffffffffffffffffffffffffffffff167f623b3804fa71d67900d064613da8f94b9617215ee90799290593e1745087ad1860075484604051808381526020018281526020019250505060405180910390a361037982600754610667565b61038161066b565b6103986007546003546106d690919063ffffffff16565b6003819055506103aa826007546106f2565b60006007819055505050565b60045481565b60035481565b600560009054906101000a900473ffffffffffffffffffffffffffffffffffffffff1673ffffffffffffffffffffffffffffffffffffffff163373ffffffffffffffffffffffffffffffffffffffff1614151561041e57600080fd5b8060048190555050565b60006004546003541015905090565b600160009054906101000a900473ffffffffffffffffffffffffffffffffffffffff1681565b600560009054906101000a900473ffffffffffffffffffffffffffffffffffffffff1681565b60006105f96004546105eb600660009054906101000a900473ffffffffffffffffffffffffffffffffffffffff1673ffffffffffffffffffffffffffffffffffffffff1663dd62ed3e600560009054906101000a900473ffffffffffffffffffffffffffffffffffffffff16306040518363ffffffff167c0100000000000000000000000000000000000000000000000000000000028152600401808373ffffffffffffffffffffffffffffffffffffffff1673ffffffffffffffffffffffffffffffffffffffff1681526020018273ffffffffffffffffffffffffffffffffffffffff1673ffffffffffffffffffffffffffffffffffffffff16815260200192505050602060405180830381600087803b1580156105a157600080fd5b505af11580156105b5573d6000803e3d6000fd5b505050506040513d60208110156105cb57600080fd5b8101908080519060200190929190505050856106f690919063ffffffff16565b61072e90919063ffffffff16565b9050919050565b600660009054906101000a900473ffffffffffffffffffffffffffffffffffffffff1681565b6106308282610744565b600454610648826003546106d690919063ffffffff16565b1115151561065557600080fd5b5050565b6106638282610794565b5050565b5050565b600160009054906101000a900473ffffffffffffffffffffffffffffffffffffffff1673ffffffffffffffffffffffffffffffffffffffff166108fc349081150290604051600060405180830381858888f193505050501580156106d3573d6000803e3d6000fd5b50565b600081830190508281101515156106e957fe5b80905092915050565b5050565b6000808314156107095760009050610728565b818302905081838281151561071a57fe5b0414151561072457fe5b8090505b92915050565b6000818381151561073b57fe5b04905092915050565b600073ffffffffffffffffffffffffffffffffffffffff168273ffffffffffffffffffffffffffffffffffffffff161415151561078057600080fd5b6000811415151561079057600080fd5b5050565b610805600560009054906101000a900473ffffffffffffffffffffffffffffffffffffffff168383600660009054906101000a900473ffffffffffffffffffffffffffffffffffffffff1673ffffffffffffffffffffffffffffffffffffffff16610809909392919063ffffffff16565b5050565b8373ffffffffffffffffffffffffffffffffffffffff166323b872dd8484846040518463ffffffff167c0100000000000000000000000000000000000000000000000000000000028152600401808473ffffffffffffffffffffffffffffffffffffffff1673ffffffffffffffffffffffffffffffffffffffff1681526020018373ffffffffffffffffffffffffffffffffffffffff1673ffffffffffffffffffffffffffffffffffffffff1681526020018281526020019350505050602060405180830381600087803b1580156108e057600080fd5b505af11580156108f4573d6000803e3d6000fd5b505050506040513d602081101561090a57600080fd5b8101908080519060200190929190505050151561092657600080fd5b505050505600a165627a7a72305820d4f8dea71005099bbce2b7c6cf201a0287950102e1517faa43c104a8587ab0aa0029",
  "source": "pragma solidity ^0.4.24;\n\nimport './CappedCrowdsale.sol';\nimport './SANDER1.sol';\nimport './SafeERC20.sol';\n\ncontract SuperCrowdsale is CappedCrowdsale {\n    \n    using SafeERC20 for SANDER1;\n\n    modifier onlyOwner {\n        require(msg.sender == owner);\n        _;\n    }\n\n    address public owner;\n    SANDER1 public token;\n    uint256 internal weiAmount;\n\n    event ProcessedRemainder(uint256 remainder);\n\n    constructor (\n        SANDER1 _token, // sander1.superander.eth\n        address _wallet, // wallet.superander.eth\n        uint256 _cap\n    ) public \n        Crowdsale(\n            _wallet,\n            _token\n        ) \n        CappedCrowdsale(\n            _cap\n        ) \n    {\n        owner = msg.sender;\n        token = _token;\n    }\n\n    /**\n    * @dev set total cap in WEI\n    * @param _cap uint256\n    * In the future, the cap will be calculated by an oracle at the time of the purchase\n    */\n    function setCap(uint256 _cap) onlyOwner public {\n        cap = _cap;\n    }\n\n    /**\n   * @dev low level token purchase ***DO NOT OVERRIDE***\n   * @param _beneficiary Address performing the token purchase\n   */\n    function buyTokens(address _beneficiary) public payable {\n        weiAmount = msg.value;\n        // if wei raised equals total cap, stop the crowdsale.\n        _preValidatePurchase(_beneficiary, weiAmount);\n        uint256 tokens = getTokenAmount(weiAmount);\n        _processPurchase(_beneficiary, tokens);\n        emit TokenPurchase(msg.sender, _beneficiary, weiAmount, tokens);\n        _updatePurchasingState(_beneficiary, weiAmount);\n        _forwardFunds();\n        weiRaised = weiRaised.add(weiAmount);\n        _postValidatePurchase(_beneficiary, weiAmount);\n        weiAmount = 0;\n    }\n\n    /**\n    * @dev Source of tokens. Override this method to modify the way in which the crowdsale ultimately gets and sends its tokens.\n    * @param _beneficiary Address performing the token purchase\n    * @param _tokenAmount Number of tokens to be emitted\n    */\n    function _deliverTokens(address _beneficiary, uint256 _tokenAmount) internal {\n        token.safeTransferFrom(owner, _beneficiary, _tokenAmount);\n    }\n\n    /**\n       * @dev Override to extend the way in which ether is converted to tokens.\n       * @param _weiAmount Value in wei to be converted into tokens\n       * @return Number of tokens that can be purchased with the specified _weiAmount\n   */\n    function getTokenAmount(uint256 _weiAmount) public view returns (uint256) {\n        return _weiAmount.mul(token.allowance(owner, address(this))).div(cap);\n    }\n}",
  "sourcePath": "/Users/GustavoIbarra/Projects/Solidity/SANDER1/contracts/SuperCrowdsale.sol",
  "compiler": {
    "name": "solc",
    "version": "0.4.24+commit.e67f0147.Emscripten.clang"
  },
  "schemaVersion": "2.0.1",
  "updatedAt": "2018-11-23T16:37:16.651Z"
}